{
  "contractName": "Electoin",
  "abi": [
    {
      "constant": true,
      "inputs": [],
      "name": "candidate",
      "outputs": [
        {
          "name": "",
          "type": "string"
        }
      ],
      "payable": false,
      "stateMutability": "view",
      "type": "function"
    },
    {
      "constant": false,
      "inputs": [],
      "name": "Election",
      "outputs": [],
      "payable": false,
      "stateMutability": "nonpayable",
      "type": "function"
    }
  ],
  "bytecode": "0x608060405234801561001057600080fd5b506102b5806100206000396000f30060806040526004361061004c576000357c0100000000000000000000000000000000000000000000000000000000900463ffffffff1680631d6c263c146100515780636c8381f814610068575b600080fd5b34801561005d57600080fd5b506100666100f8565b005b34801561007457600080fd5b5061007d610146565b6040518080602001828103825283818151815260200191508051906020019080838360005b838110156100bd5780820151818401526020810190506100a2565b50505050905090810190601f1680156100ea5780820380516001836020036101000a031916815260200191505b509250505060405180910390f35b6040805190810160405280600b81526020017f43616e6469646174652031000000000000000000000000000000000000000000815250600090805190602001906101439291906101e4565b50565b60008054600181600116156101000203166002900480601f0160208091040260200160405190810160405280929190818152602001828054600181600116156101000203166002900480156101dc5780601f106101b1576101008083540402835291602001916101dc565b820191906000526020600020905b8154815290600101906020018083116101bf57829003601f168201915b505050505081565b828054600181600116156101000203166002900490600052602060002090601f016020900481019282601f1061022557805160ff1916838001178555610253565b82800160010185558215610253579182015b82811115610252578251825591602001919060010190610237565b5b5090506102609190610264565b5090565b61028691905b8082111561028257600081600090555060010161026a565b5090565b905600a165627a7a7230582006dc580d6182daac1adc853e5de4d64f75592085e562308bd36e3f4bd5cdbb440029",
  "source": "pragma solidity ^0.4.23;\n\ncontract Electoin {\n\t// Store candidate\n\t// Read candidate\n\tstring public candidate; // candidate ia a state variable. By default it has a getter() function.\n\t// Constructor\n\tfunction Election() public {\n\t\tcandidate = \"Candidate 1\";\n\t}\n}",
  "sourcePath": "/home/emusk/rohith/code/electionDAPP/contracts/Election.sol",
  "compiler": {
    "name": "solc",
    "version": "0.4.24+commit.e67f0147.Emscripten.clang"
  },
  "schemaVersion": "2.0.1",
  "updatedAt": "2018-09-05T08:53:39.648Z"
}